:100000000C942A000C94ED020C9447000C944700C9
:100010000C9490030C9447000C9447000C944700F8
:100020000C9447000C9412030C9447000C94470066
:100030000C9447000C9447000C9447000C94470024
:100040000C9447000C9447000C9447000C94470014
:100050000C94470011241FBECFE5D4E0DEBFCDBF16
:1000600010E0A0E6B0E0ECE1F6E102C005900D92F0
:10007000AE38B107D9F720E0AEE8B0E001C01D927C
:10008000AB3CB207E1F70E94A3050C940C0B0C9457
:1000900000000E94C4040E94070540E750E060E0B1
:1000A00080E00E94EE0447E750E066E080E00E94B6
:1000B000EE044EE750E06DE080E00C94EE0424E6A0
:1000C000AC01249FC001259F900D11248C509E4FA0
:1000D0000895CF92DF92EF92FF920F931F93CF93E9
:1000E000DF9300919E0010919F0080919A00909163
:1000F0009B008017910709F444C00230110508F4F1
:1001000040C084E6809FB001819F700D11246C5027
:100110007E4F7093CA006093C90020919C0030917B
:100120009D00829FE001839FD00D1124CC50DE4FB3
:10013000D093C100C093C000C090C500D090C6004D
:10014000E090C700F090C80080E090E00E94FE06BA
:10015000A70196010E94B5076B017C01BE0180E0FA
:1001600090E00E94FE069B01AC01C701B6010E940F
:100170005D066093C5007093C6008093C70090939E
:10018000C80010939B0000939A006091C500709185
:10019000C6008091C7009091C8000E94CF0670935E
:1001A000C3006093C2008FE697E10197F1F700C0AA
:1001B0000000DF91CF911F910F91FF90EF90DF90A2
:1001C000CF9008954F925F926F927F928F929F92FD
:1001D000AF92BF92CF92DF92EF92FF920F931F9355
:1001E000CF93DF938091CA008F938091C9008F9342
:1001F00003E810E01F930F93C6EBD0E0DF93CF939B
:100200000E942208AE0160E081E00E94EE0480912D
:1002100097008F93809196008F931F930F93DF9396
:10022000CF930E942208AE0166E081E00E94EE04B6
:1002300080918E0090918F00A0919000B0919100DC
:10024000BF93AF939F938F9387E890E09F938F9393
:10025000DF93CF930E942208AE016DE081E00E94FF
:10026000EE046091920070919300809194009091BF
:1002700095002091A0003091A1004091A2005091E2
:10028000A3000E94EC056093A0007093A1008093EE
:10029000A2009093A3002091C5003091C600409128
:1002A000C7005091C8006091A0007091A10080919A
:1002B000A2009091A3000E94EB056093A0007093B0
:1002C000A1008093A2009093A300C090A400D090BE
:1002D000A500E090A600F090A7002091A00030912A
:1002E000A1004091A2005091A300C701B6010E9455
:1002F000B5074B015C0160916A0070916B0080E072
:1003000090E00E94FE069B01AC01C501B4010E9471
:100310005D0660938E0070938F00809390009093A1
:10032000910080908E0090908F00A0909000B090EF
:1003300091002DEC3CEC4CE45EE3C701B6010E9459
:10034000EB052DB73EB72C5E3F4F0FB6F8943EBF7E
:100350000FBE2DBFA50194010E94B00718160CF026
:1003600045C01092C400C0916200D091630080919A
:100370009600909197008C0F9D1F9093970080930B
:1003800096008090920090909300A0909400B0907E
:100390009500609168007091690080E090E00E9493
:1003A000FE069B01AC016091640070916500809134
:1003B0006600909167000E945D062B013C01BE0122
:1003C00080E090E00E94FE069B01AC01C301B201F7
:1003D0000E94B507A50194010E94EC05609392006C
:1003E00070939300809394009093950080908E007A
:1003F00090908F00A0909000B09091002DEC3CEC7C
:100400004CE45EE3C701B6010E94EC05A50194012E
:100410000E94580687FF48C081E08093C400C091C5
:100420006200D091630080919600909197008C1BA0
:100430009D0B9093970080939600809092009090EF
:100440009300A0909400B090950060916800709126
:10045000690080E090E00E94FE069B01AC01609183
:1004600064007091650080916600909167000E9421
:100470005D062B013C01BE0180E090E00E94FE067B
:100480009B01AC01C301B2010E94B5079B01AC0105
:10049000C501B4010E94EB05609392007093930034
:1004A000809394009093950020918E0030918F005E
:1004B0004091900050919100C701B6010E945806EA
:1004C000882309F479C02091C4008091960090910E
:1004D00097006091680070916900C0916000D091B0
:1004E0006100211132C08C1B9D0B9093970080936B
:1004F0009600C0909200D0909300E0909400F0900D
:10050000950080E090E00E94FE069B01AC016091A6
:1005100064007091650080916600909167000E9470
:100520005D064B015C01BE0180E090E00E94FE068A
:100530009B01AC01C501B4010E94B5079B01AC0150
:10054000C701B6010E94EB052FC08C0F9D1F909331
:10055000970080939600C0909200D0909300E09016
:100560009400F090950080E090E00E94FE069B01D0
:10057000AC0160916400709165008091660090917B
:1005800067000E945D064B015C01BE0180E090E0C7
:100590000E94FE069B01AC01C501B4010E94B50793
:1005A000A70196010E94EC0560939200709393005E
:1005B0008093940090939500DF91CF911F910F91BC
:1005C000FF90EF90DF90CF90BF90AF909F908F9073
:1005D0007F906F905F904F9008951F920F920FB68B
:1005E0000F9211248F939F93AF93BF938091B2008A
:1005F0009091B300A091B400B091B5000196A11DF7
:10060000B11D8093B2009093B300A093B400B09357
:10061000B500BF91AF919F918F910F900FBE0F903A
:100620001F9018951F920F920FB60F9211242F93BF
:100630003F934F935F936F937F938F939F93AF936A
:10064000BF93EF93FF938091AA009091AB0088979E
:1006500008F44AC01092AB001092AA006091B20058
:100660007091B3008091B4009091B5000E94FE0695
:1006700020E038E742E858E40E945D0620E030E0E0
:100680004AE754E40E94B5070E94CF0670939F008A
:1006900060939E0061157105F9F0209198003091EA
:1006A00099002F5F3F4F309399002093980021309D
:1006B000310591F470939D0060939C0082B3811189
:1006C00005C0109299001092980006C082E090E058
:1006D00090939900809398001092B2001092B3000A
:1006E0001092B4001092B5008091AA009091AB00D6
:1006F00001969093AB008093AA0083E682BFFF919E
:10070000EF91BF91AF919F918F917F916F915F9189
:100710004F913F912F910F900FBE0F901F90189502
:100720001F920F920FB60F9211242F933F934F9366
:100730005F936F937F938F939F93AF93BF93EF9349
:10074000FF938091AC009091AD008036910508F444
:10075000AFC01092AD001092AC00B19919C082B335
:100760008230B1F420916C0030916D0040916E00A8
:1007700050916F006EEA70E080EB90E00E941305EC
:1007800080919E0090919F00009709F473C017C05C
:10079000B2991AC082B38230B9F420916C003091C2
:1007A0006D0040916E0050916F006EEA70E080EB3A
:1007B00090E00E94470580919E0090919F00909349
:1007C0009D0080939C0056C0B09954C020916C004D
:1007D00030916D0040916E0050916F006EEA70E0B4
:1007E00080EB90E00E94850582B381111DC01092BC
:1007F000C5001092C6001092C7001092C800109257
:100800009200109293001092940010929500109212
:100810009700109296001092A4001092A5001092DA
:10082000A6001092A70026C080E090E0A0EAB0E405
:100830008093C5009093C600A093C700B093C800F2
:100840008093920090939300A0939400B0939500AE
:1008500084E690E0909397008093960080E090E08B
:10086000A0E8B0E48093A4009093A500A093A60014
:10087000B093A7008FEC97E00197F1F700C000005C
:100880008091B1008BBD81E02091B0003091B1002A
:10089000232B09F480E08ABD8091AF0089BD81E0FF
:1008A0002091AE003091AF00232B09F480E088BD89
:1008B0008091AC009091AD0001969093AD00809333
:1008C000AC0082E884BDFF91EF91BF91AF919F9101
:1008D0008F917F916F915F914F913F912F910F90E9
:1008E0000FBE0F901F9018959BB39F70282F207FED
:1008F000922B9BBBDA98DB9A32E03A95F1F700C075
:10090000DB98E7ECF0E03197F1F700C000002BB383
:100910002F70F0E18F9FC0011124822B8BBBDB9ADB
:1009200032E03A95F1F700C0DB988FE99FE001973C
:10093000F1F700C0000008959BB39F70282F207F1F
:10094000922B9BBBDA9ADB9A32E03A95F1F700C022
:10095000DB98E7ECF0E03197F1F700C000002BB333
:100960002F70F0E18F9FC0011124822B8BBBDB9A8B
:1009700032E03A95F1F700C0DB988FE99FE00197EC
:10098000F1F700C0000008958FEF8ABB8FE39CE968
:100990000197F1F700C0000082E00E94740488E231
:1009A0000E9474048CE00E94740486E00E94740427
:1009B00081E00E9474048FE99FE00197F1F700C085
:1009C00000000895CF93DF93EC018991882319F0FB
:1009D0000E949C04FACFDF91CF910895CF93DF93CB
:1009E000EA01811106C060316CF4862F8F70806837
:1009F00007C0813039F460312CF4862F8F70806C01
:100A00000E947404CE01DF91CF910C94E20481E046
:100A10000E9474048FE99FE00197F1F700C0000085
:100A200080E80C947404DC01FB018FE097E20197ED
:100A3000F1F700C00000B19929C082B3823031F5CE
:100A4000B19903C082B38230D9F38D919C911197F3
:100A5000480F591F11965C934E9380819181280F06
:100A6000391F318320838D919C9111978038954255
:100A700020F080E895E28D939C93808191818F375F
:100A80009E4320F08FE79EE3918380830895FC01CD
:100A9000DB0180819181843C994090F18FE097E265
:100AA0000197F1F700C00000B2992EC082B38230E6
:100AB00059F5B29903C082B38230D9F38081918114
:100AC000841B950B918380838D919C911197821B40
:100AD000930B11969C938E938081918189359240DE
:100AE00020F48CED95E0918380838D919C911197FA
:100AF000893E934048F484EC99E08D939C9308954B
:100B0000518340832D933C930895FC018FE097E23D
:100B10000197F1F700C00000B09914C0B09BFECF60
:100B200082B392E0982792BB82B3811106C01182F2
:100B30001082FB0111821082089551834083FB01D2
:100B40003183208308958AB38C6F8ABB8BB38BBBB0
:100B500017BA18BA81B3826381BB12BA85E083BF2A
:100B600083E682BF84E085BD82E884BD8FB5826A5A
:100B70008FBD8EB589618EBD1DBC1CBC8EE387BD4B
:100B80008FE786BD1BBC1ABC19BC18BC81E489BFA9
:100B900083E085BF78940E94490060916A0070915B
:100BA0006B0080E090E00E94FE066093A0007093CE
:100BB000A1008093A2009093A3000E9469000E946C
:100BC000E2002FEF89E698E1215080409040E1F764
:100BD00000C00000F2CF5058BB27AA270E9403068E
:100BE0000C9476070E94680738F00E946F0720F087
:100BF00039F49F3F19F426F40C9465070EF4E09540
:100C0000E7FB0C945F07E92F0E94870758F3BA1798
:100C1000620773078407950720F079F4A6F50C9412
:100C2000A9070EF4E0950B2EBA2FA02D0B01B901E8
:100C300090010C01CA01A0011124FF27591B99F052
:100C4000593F50F4503E68F11A16F040A22F232F5E
:100C5000342F4427585FF3CF469537952795A795AE
:100C6000F0405395C9F77EF41F16BA0B620B730B55
:100C7000840BBAF09150A1F0FF0FBB1F661F771FC6
:100C8000881FC2F70EC0BA0F621F731F841F48F47B
:100C9000879577956795B795F7959E3F08F0B0CF04
:100CA0009395880F08F09927EE0F979587950895EB
:100CB0000E943B0708F481E008950E9471060C949D
:100CC00076070E946F0758F00E94680740F029F4E9
:100CD0005F3F29F00C945F0751110C94AA070C9404
:100CE00065070E94870768F39923B1F3552391F3B1
:100CF000951B550BBB27AA2762177307840738F08B
:100D00009F5F5F4F220F331F441FAA1FA9F335D0E7
:100D10000E2E3AF0E0E832D091505040E695001C9B
:100D2000CAF72BD0FE2F29D0660F771F881FBB1F55
:100D3000261737074807AB07B0E809F0BB0B802D33
:100D4000BF01FF2793585F4F3AF09E3F510578F05F
:100D50000C945F070C94AA075F3FE4F3983ED4F32A
:100D6000869577956795B795F7959F5FC9F7880F33
:100D7000911D9695879597F90895E1E0660F771F85
:100D8000881FBB1F621773078407BA0720F0621B16
:100D9000730B840BBA0BEE1F88F7E09508950E9441
:100DA0008F0788F09F5798F0B92F9927B751B0F067
:100DB000E1F0660F771F881F991F1AF0BA95C9F7DF
:100DC00014C0B13091F00E94A907B1E008950C94CD
:100DD000A907672F782F8827B85F39F0B93FCCF380
:100DE000869577956795B395D9F73EF4909580955C
:100DF000709561957F4F8F4F9F4F0895E89409C07C
:100E000097FB3EF490958095709561957F4F8F4F3D
:100E10009F4F9923A9F0F92F96E9BB279395F69553
:100E2000879577956795B795F111F8CFFAF4BB0FD1
:100E300011F460FF1BC06F5F7F4F8F4F9F4F16C035
:100E4000882311F096E911C0772321F09EE8872FBF
:100E5000762F05C0662371F096E8862F70E060E07B
:100E60002AF09A95660F771F881FDAF7880F9695F4
:100E7000879597F90895990F0008550FAA0BE0E898
:100E8000FEEF16161706E807F907C0F0121613064C
:100E9000E407F50798F0621B730B840B950B39F48C
:100EA0000A2661F0232B242B252B21F408950A26F2
:100EB00009F4A140A6958FEF811D811D089597F932
:100EC0009F6780E870E060E008959FEF80EC0895F0
:100ED00000240A9416161706180609060895002419
:100EE0000A9412161306140605060895092E039493
:100EF000000C11F4882352F0BB0F40F4BF2B11F407
:100F000060FF04C06F5F7F4F8F4F9F4F089557FD65
:100F10009058440F551F59F05F3F71F04795880F67
:100F200097FB991F61F09F3F79F0879508951216FE
:100F300013061406551FF2CF4695F1DF08C01616AA
:100F400017061806991FF1CF86957105610508945B
:100F50000895E894BB2766277727CB0197F9089572
:100F60000E943B0708F48FEF08950E94C8070C9475
:100F700076070E94680738F00E946F0720F09523DB
:100F800011F00C945F070C94650711240C94AA07C8
:100F90000E94870770F3959FC1F3950F50E0551F8E
:100FA000629FF001729FBB27F00DB11D639FAA27BE
:100FB000F00DB11DAA1F649F6627B00DA11D661F0D
:100FC000829F2227B00DA11D621F739FB00DA11D2E
:100FD000621F839FA00D611D221F749F3327A00DE8
:100FE000611D231F849F600D211D822F762F6A2F84
:100FF00011249F5750409AF0F1F088234AF0EE0FE9
:10100000FF1FBB1F661F771F881F91505040A9F715
:101010009E3F510580F00C945F070C94AA075F3F38
:10102000E4F3983ED4F3869577956795B795F79551
:10103000E7959F5FC1F7FE2B880F911D96958795C9
:1010400097F90895AEE0B0E0E8E2F8E00C94E30A26
:101050000D891E8986E08C831A8309838FEF9FE7B1
:101060009E838D83AE01475E5F4F6F89788DCE0181
:1010700001960E944408EF81F885E00FF11F10826D
:101080002E96E4E00C94FF0AABE0B0E0EAE4F8E06E
:101090000C94D50A6C017B018A01FC01178216822F
:1010A000838181FFCCC1CE0101963C01F601938181
:1010B000F70193FD859193FF81917F01882309F4C6
:1010C000BAC1853239F493FD859193FF81917F01F7
:1010D000853229F4B60190E00E943B0AE7CF912CBB
:1010E000212C312CFFE1F315D8F08B3279F038F454
:1010F000803279F08332A1F4232D20611DC08D321E
:1011000061F0803369F4232D216016C0832D826045
:10111000382EE32DE4603E2E2AC0F32DF8601DC06A
:1011200037FC2DC020ED280F2A3040F08E32B9F464
:1011300036FC81C1232D2064322E19C036FE06C034
:101140008AE0989E200D1124922E11C0EAE02E9E76
:10115000200D1124222EF32DF0623F2E08C08C3674
:1011600021F4832D8068382E02C0883641F4F701BF
:1011700093FD859193FF81917F018111B3CF982FCA
:101180009F7D9554933028F40C5F1F4F9FE3998304
:101190000DC0833631F0833771F0833509F059C0C3
:1011A00021C0F801808189830E5F1F4F88248394BA
:1011B000912C530113C02801F2E04F0E511CF8018D
:1011C000A080B18036FE03C0692D70E002C06FEFD1
:1011D0007FEFC5010E94300A4C018201F32DFF7799
:1011E0003F2E16C0280122E0420E511CF801A080BB
:1011F000B18036FE03C0692D70E002C06FEF7FEF53
:10120000C5010E94250A4C01F32DF0683F2E820192
:1012100033FC1BC0822D90E088169906B0F4B6010D
:1012200080E290E00E943B0A2A94F4CFF50137FC5B
:10123000859137FE81915F01B60190E00E943B0AE3
:1012400021102A9421E0821A91088114910471F7E7
:10125000E8C0843611F0893641F5F80137FE07C041
:1012600060817181828193810C5F1F4F08C0608112
:101270007181072E000C880B990B0E5F1F4FF32D09
:10128000FF763F2E97FF09C09095809570956195E8
:101290007F4F8F4F9F4FF0683F2E2AE030E0A30131
:1012A0000E94770A882E861845C0853731F4232D91
:1012B0002F7EB22E2AE030E025C0932D997FB92EE3
:1012C0008F36C1F018F4883579F0B5C0803719F041
:1012D000883721F0B0C0E92FE061BE2EB4FE0DC00A
:1012E000FB2DF460BF2E09C034FE0AC0292F2660F2
:1012F000B22E06C028E030E005C020E130E002C098
:1013000020E132E0F801B7FE07C06081718182817F
:1013100093810C5F1F4F06C06081718180E090E077
:101320000E5F1F4FA3010E94770A882E8618FB2D9F
:10133000FF773F2E36FE0DC0232D2E7FA22E89145F
:1013400058F434FE0BC032FC09C0832D8E7EA82ECB
:1013500005C0B82CA32C03C0B82C01C0B92CA4FE26
:101360000FC0FE01E80DF11D8081803321F49A2D1C
:10137000997EA92E09C0A2FE06C0B394B39404C0FE
:101380008A2D867809F0B394A3FC11C0A0FE06C094
:10139000B21488F4280C922C9B180EC0B21460F47E
:1013A000B60180E290E00E943B0AB394F7CFB214FA
:1013B00018F42B1802C0982C212CA4FE10C0B601E2
:1013C00080E390E00E943B0AA2FE17C0A1FC03C08C
:1013D00088E790E002C088E590E0B6010CC08A2D55
:1013E000867859F0A1FE02C08BE201C080E2A7FC22
:1013F0008DE2B60190E00E943B0A891438F4B601F0
:1014000080E390E00E943B0A9A94F7CF8A94F3011C
:10141000E80DF11D8081B60190E00E943B0A811029
:10142000F5CF222009F442CEB60180E290E00E947E
:101430003B0A2A94F6CFF6018681978102C08FEF8E
:101440009FEF2B96E2E10C94F10AFC0105906150AC
:1014500070400110D8F7809590958E0F9F1F0895CA
:10146000FC016150704001900110D8F78095909573
:101470008E0F9F1F08950F931F93CF93DF93FB0150
:10148000238121FD03C08FEF9FEF2CC022FF16C0E8
:1014900046815781248135814217530744F4A08146
:1014A000B1819D012F5F3F4F318320838C93268133
:1014B00037812F5F3F4F3783268314C08B01EC01A8
:1014C000FB010084F185E02D0995892BE1F6D80117
:1014D00016968D919C911797019617969C938E93D3
:1014E0001697CE01DF91CF911F910F910895FA01C8
:1014F000AA27283051F1203181F1E8946F936E7F53
:101500006E5F7F4F8F4F9F4FAF4FB1E03ED0B4E043
:101510003CD0670F781F891F9A1FA11D680F791F84
:101520008A1F911DA11D6A0F711D811D911DA11D95
:1015300020D009F468943F912AE0269F11243019A5
:10154000305D3193DEF6CF010895462F4770405D40
:101550004193B3E00FD0C9F7F6CF462F4F70405DEF
:101560004A3318F0495D31FD4052419302D0A9F74A
:10157000EACFB4E0A6959795879577956795BA9544
:10158000C9F700976105710508959B01AC010A2E0A
:1015900006945795479537952795BA95C9F7620FE1
:1015A000731F841F951FA01D08952F923F924F9285
:1015B0005F926F927F928F929F92AF92BF92CF92E3
:1015C000DF92EF92FF920F931F93CF93DF93CDB7EC
:1015D000DEB7CA1BDB0B0FB6F894DEBF0FBECDBF64
:1015E00009942A88398848885F846E847D848C8435
:1015F0009B84AA84B984C884DF80EE80FD800C813E
:101600001B81AA81B981CE0FD11D0FB6F894DEBF20
:0C1610000FBECDBFED010895F894FFCF90
:10161C000F001E000000A04064000A00C409DC0595
:10162C004572706D207C005072706D207C00506192
:0E163C00207C002564200025322E316620001F
:00000001FF
